{
  "contractName": "Supplychain",
  "abi": [
    {
      "inputs": [],
      "payable": false,
      "stateMutability": "nonpayable",
      "type": "constructor"
    },
    {
      "constant": true,
      "inputs": [],
      "name": "manufacturerAddress",
      "outputs": [
        {
          "internalType": "address",
          "name": "",
          "type": "address"
        }
      ],
      "payable": false,
      "stateMutability": "view",
      "type": "function"
    },
    {
      "constant": false,
      "inputs": [
        {
          "internalType": "address",
          "name": "_mfgAddress",
          "type": "address"
        },
        {
          "internalType": "bytes32",
          "name": "_mfgName",
          "type": "bytes32"
        },
        {
          "internalType": "bytes32",
          "name": "_mfgLocation",
          "type": "bytes32"
        }
      ],
      "name": "addManufacturer",
      "outputs": [],
      "payable": false,
      "stateMutability": "nonpayable",
      "type": "function"
    },
    {
      "constant": true,
      "inputs": [
        {
          "internalType": "address",
          "name": "verifyMfgAddress",
          "type": "address"
        }
      ],
      "name": "verifyManufacturer",
      "outputs": [
        {
          "internalType": "address",
          "name": "_mfgAddress",
          "type": "address"
        },
        {
          "internalType": "bytes32",
          "name": "_mfgName",
          "type": "bytes32"
        },
        {
          "internalType": "bytes32",
          "name": "_mfgLocation",
          "type": "bytes32"
        }
      ],
      "payable": false,
      "stateMutability": "view",
      "type": "function"
    }
  ],
  "bytecode": "0x608060405234801561001057600080fd5b50336000806101000a81548173ffffffffffffffffffffffffffffffffffffffff021916908373ffffffffffffffffffffffffffffffffffffffff1602179055506104fa806100606000396000f3fe608060405234801561001057600080fd5b50600436106100415760003560e01c80637628858314610046578063d64a3d8b1461009e578063f1f8ec4314610130575b600080fd5b61009c6004803603606081101561005c57600080fd5b81019080803573ffffffffffffffffffffffffffffffffffffffff169060200190929190803590602001909291908035906020019092919050505061017a565b005b6100e0600480360360208110156100b457600080fd5b81019080803573ffffffffffffffffffffffffffffffffffffffff16906020019092919050505061033e565b604051808473ffffffffffffffffffffffffffffffffffffffff1673ffffffffffffffffffffffffffffffffffffffff168152602001838152602001828152602001935050505060405180910390f35b610138610463565b604051808273ffffffffffffffffffffffffffffffffffffffff1673ffffffffffffffffffffffffffffffffffffffff16815260200191505060405180910390f35b6000809054906101000a900473ffffffffffffffffffffffffffffffffffffffff1673ffffffffffffffffffffffffffffffffffffffff163373ffffffffffffffffffffffffffffffffffffffff16146101d357600080fd5b6101db610488565b60405180606001604052808573ffffffffffffffffffffffffffffffffffffffff1681526020018481526020018381525090506001819080600181540180825580915050906001820390600052602060002090600302016000909192909190915060008201518160000160006101000a81548173ffffffffffffffffffffffffffffffffffffffff021916908373ffffffffffffffffffffffffffffffffffffffff160217905550602082015181600101556040820151816002015550505080600260008673ffffffffffffffffffffffffffffffffffffffff1673ffffffffffffffffffffffffffffffffffffffff16815260200190815260200160002060008201518160000160006101000a81548173ffffffffffffffffffffffffffffffffffffffff021916908373ffffffffffffffffffffffffffffffffffffffff160217905550602082015181600101556040820151816002015590505050505050565b6000806000805b60018054905081101561045a578473ffffffffffffffffffffffffffffffffffffffff166001828154811061037657fe5b906000526020600020906003020160000160009054906101000a900473ffffffffffffffffffffffffffffffffffffffff1673ffffffffffffffffffffffffffffffffffffffff16141561044d57600181815481106103d157fe5b906000526020600020906003020160000160009054906101000a900473ffffffffffffffffffffffffffffffffffffffff166001828154811061041057fe5b9060005260206000209060030201600101546001838154811061042f57fe5b9060005260206000209060030201600201549350935093505061045c565b8080600101915050610345565b505b9193909250565b6000809054906101000a900473ffffffffffffffffffffffffffffffffffffffff1681565b6040518060600160405280600073ffffffffffffffffffffffffffffffffffffffff1681526020016000801916815260200160008019168152509056fea265627a7a723158207821c5d65d38aae00714e63a13fd79ee238aa47995bd24b5e9aea0fd1a6ce3a964736f6c63430005100032",
  "source": "pragma  solidity 0.5.16;\r\ncontract Supplychain{\r\n    address public manufacturerAddress;\r\n\r\n    constructor() public{\r\n        manufacturerAddress=msg.sender;\r\n    }\r\n    modifier onlyManufacturer(){\r\n        require(msg.sender==manufacturerAddress);\r\n        _;\r\n    }\r\n    struct Manufacturer{\r\n        address _mfgAddress;\r\n        bytes32 _mfgName;\r\n        bytes32 _mfgLocation;\r\n    }\r\n    Manufacturer[] manufacturer;\r\n    mapping (address=>Manufacturer) mfgAddressList;\r\n\r\n    function addManufacturer(address _mfgAddress,bytes32 _mfgName,bytes32 _mfgLocation) public onlyManufacturer(){\r\n        Manufacturer memory _manufacturer = Manufacturer(_mfgAddress,_mfgName,_mfgLocation);\r\n        manufacturer.push(_manufacturer);\r\n        mfgAddressList[_mfgAddress] = _manufacturer;\r\n    }\r\n    function verifyManufacturer(address verifyMfgAddress) public view returns(address _mfgAddress,bytes32 _mfgName,bytes32 _mfgLocation){\r\n        \r\n        for (uint i;i<manufacturer.length;i++){\r\n            if(manufacturer[i]._mfgAddress==verifyMfgAddress){\r\n                return(manufacturer[i]._mfgAddress,\r\n                        manufacturer[i]._mfgName,\r\n                        manufacturer[i]._mfgLocation);\r\n            }\r\n        }\r\n    }\r\n}\r\n\r\n    \r\n\r\n\r\n\r\n\r\n\r\n",
  "sourcePath": "C:/Users/USER/Desktop/New folder/Supply-chain-management/blockchain/contracts/Supplychain.sol",
  "compiler": {
    "name": "solc",
    "version": "0.5.16+commit.9c3226ce.Emscripten.clang"
  },
  "schemaVersion": "3.2.2",
  "updatedAt": "2020-08-05T13:16:32.461Z",
  "networkType": "ethereum",
  "devdoc": {
    "methods": {}
  },
  "userdoc": {
    "methods": {}
  }
}